{
  "_format": "hh-sol-artifact-1",
  "contractName": "OrganDonation",
  "sourceName": "contracts/OrganDonation.sol",
  "abi": [
    {
      "anonymous": false,
      "inputs": [
        {
          "indexed": false,
          "internalType": "string",
          "name": "donorId",
          "type": "string"
        },
        {
          "indexed": false,
          "internalType": "string",
          "name": "recipientId",
          "type": "string"
        },
        {
          "indexed": false,
          "internalType": "string",
          "name": "organType",
          "type": "string"
        },
        {
          "indexed": false,
          "internalType": "uint256",
          "name": "timestamp",
          "type": "uint256"
        }
      ],
      "name": "MatchSaved",
      "type": "event"
    },
    {
      "inputs": [],
      "name": "getMatches",
      "outputs": [
        {
          "components": [
            {
              "internalType": "string",
              "name": "donorId",
              "type": "string"
            },
            {
              "internalType": "string",
              "name": "recipientId",
              "type": "string"
            },
            {
              "internalType": "string",
              "name": "organType",
              "type": "string"
            },
            {
              "internalType": "uint256",
              "name": "timestamp",
              "type": "uint256"
            }
          ],
          "internalType": "struct OrganDonation.Match[]",
          "name": "",
          "type": "tuple[]"
        }
      ],
      "stateMutability": "view",
      "type": "function"
    },
    {
      "inputs": [
        {
          "internalType": "uint256",
          "name": "",
          "type": "uint256"
        }
      ],
      "name": "matches",
      "outputs": [
        {
          "internalType": "string",
          "name": "donorId",
          "type": "string"
        },
        {
          "internalType": "string",
          "name": "recipientId",
          "type": "string"
        },
        {
          "internalType": "string",
          "name": "organType",
          "type": "string"
        },
        {
          "internalType": "uint256",
          "name": "timestamp",
          "type": "uint256"
        }
      ],
      "stateMutability": "view",
      "type": "function"
    },
    {
      "inputs": [
        {
          "internalType": "string",
          "name": "_donorId",
          "type": "string"
        },
        {
          "internalType": "string",
          "name": "_recipientId",
          "type": "string"
        },
        {
          "internalType": "string",
          "name": "_organType",
          "type": "string"
        }
      ],
      "name": "saveMatch",
      "outputs": [],
      "stateMutability": "nonpayable",
      "type": "function"
    }
  ],
  "bytecode": "0x6080604052348015600f57600080fd5b50610d948061001f6000396000f3fe608060405234801561001057600080fd5b50600436106100415760003560e01c80632c70120e1461004657806331860ea6146100645780634768d4ef14610080575b600080fd5b61004e6100b3565b60405161005b9190610762565b60405180910390f35b61007e600480360381019061007991906108cd565b6102d2565b005b61009a600480360381019061009591906109a0565b6103ae565b6040516100aa9493929190610a26565b60405180910390f35b60606000805480602002602001604051908101604052809291908181526020016000905b828210156102c9578382906000526020600020906004020160405180608001604052908160008201805461010a90610aaf565b80601f016020809104026020016040519081016040528092919081815260200182805461013690610aaf565b80156101835780601f1061015857610100808354040283529160200191610183565b820191906000526020600020905b81548152906001019060200180831161016657829003601f168201915b5050505050815260200160018201805461019c90610aaf565b80601f01602080910402602001604051908101604052809291908181526020018280546101c890610aaf565b80156102155780601f106101ea57610100808354040283529160200191610215565b820191906000526020600020905b8154815290600101906020018083116101f857829003601f168201915b5050505050815260200160028201805461022e90610aaf565b80601f016020809104026020016040519081016040528092919081815260200182805461025a90610aaf565b80156102a75780601f1061027c576101008083540402835291602001916102a7565b820191906000526020600020905b81548152906001019060200180831161028a57829003601f168201915b50505050508152602001600382015481525050815260200190600101906100d7565b50505050905090565b6000604051806080016040528085815260200184815260200183815260200142815250908060018154018082558091505060019003906000526020600020906004020160009091909190915060008201518160000190816103339190610c8c565b5060208201518160010190816103499190610c8c565b50604082015181600201908161035f9190610c8c565b506060820151816003015550507fa8cf3e95ba7249d4e8020cce7247f3e17c197851cd09d795d8aa41799670305f838383426040516103a19493929190610a26565b60405180910390a1505050565b600081815481106103be57600080fd5b90600052602060002090600402016000915090508060000180546103e190610aaf565b80601f016020809104026020016040519081016040528092919081815260200182805461040d90610aaf565b801561045a5780601f1061042f5761010080835404028352916020019161045a565b820191906000526020600020905b81548152906001019060200180831161043d57829003601f168201915b50505050509080600101805461046f90610aaf565b80601f016020809104026020016040519081016040528092919081815260200182805461049b90610aaf565b80156104e85780601f106104bd576101008083540402835291602001916104e8565b820191906000526020600020905b8154815290600101906020018083116104cb57829003601f168201915b5050505050908060020180546104fd90610aaf565b80601f016020809104026020016040519081016040528092919081815260200182805461052990610aaf565b80156105765780601f1061054b57610100808354040283529160200191610576565b820191906000526020600020905b81548152906001019060200180831161055957829003601f168201915b5050505050908060030154905084565b600081519050919050565b600082825260208201905092915050565b6000819050602082019050919050565b600081519050919050565b600082825260208201905092915050565b60005b838110156105ec5780820151818401526020810190506105d1565b60008484015250505050565b6000601f19601f8301169050919050565b6000610614826105b2565b61061e81856105bd565b935061062e8185602086016105ce565b610637816105f8565b840191505092915050565b6000819050919050565b61065581610642565b82525050565b600060808301600083015184820360008601526106788282610609565b915050602083015184820360208601526106928282610609565b915050604083015184820360408601526106ac8282610609565b91505060608301516106c1606086018261064c565b508091505092915050565b60006106d8838361065b565b905092915050565b6000602082019050919050565b60006106f882610586565b6107028185610591565b935083602082028501610714856105a2565b8060005b85811015610750578484038952815161073185826106cc565b945061073c836106e0565b925060208a01995050600181019050610718565b50829750879550505050505092915050565b6000602082019050818103600083015261077c81846106ed565b905092915050565b6000604051905090565b600080fd5b600080fd5b600080fd5b600080fd5b7f4e487b7100000000000000000000000000000000000000000000000000000000600052604160045260246000fd5b6107da826105f8565b810181811067ffffffffffffffff821117156107f9576107f86107a2565b5b80604052505050565b600061080c610784565b905061081882826107d1565b919050565b600067ffffffffffffffff821115610838576108376107a2565b5b610841826105f8565b9050602081019050919050565b82818337600083830152505050565b600061087061086b8461081d565b610802565b90508281526020810184848401111561088c5761088b61079d565b5b61089784828561084e565b509392505050565b600082601f8301126108b4576108b3610798565b5b81356108c484826020860161085d565b91505092915050565b6000806000606084860312156108e6576108e561078e565b5b600084013567ffffffffffffffff81111561090457610903610793565b5b6109108682870161089f565b935050602084013567ffffffffffffffff81111561093157610930610793565b5b61093d8682870161089f565b925050604084013567ffffffffffffffff81111561095e5761095d610793565b5b61096a8682870161089f565b9150509250925092565b61097d81610642565b811461098857600080fd5b50565b60008135905061099a81610974565b92915050565b6000602082840312156109b6576109b561078e565b5b60006109c48482850161098b565b91505092915050565b600082825260208201905092915050565b60006109e9826105b2565b6109f381856109cd565b9350610a038185602086016105ce565b610a0c816105f8565b840191505092915050565b610a2081610642565b82525050565b60006080820190508181036000830152610a4081876109de565b90508181036020830152610a5481866109de565b90508181036040830152610a6881856109de565b9050610a776060830184610a17565b95945050505050565b7f4e487b7100000000000000000000000000000000000000000000000000000000600052602260045260246000fd5b60006002820490506001821680610ac757607f821691505b602082108103610ada57610ad9610a80565b5b50919050565b60008190508160005260206000209050919050565b60006020601f8301049050919050565b600082821b905092915050565b600060088302610b427fffffffffffffffffffffffffffffffffffffffffffffffffffffffffffffffff82610b05565b610b4c8683610b05565b95508019841693508086168417925050509392505050565b6000819050919050565b6000610b89610b84610b7f84610642565b610b64565b610642565b9050919050565b6000819050919050565b610ba383610b6e565b610bb7610baf82610b90565b848454610b12565b825550505050565b600090565b610bcc610bbf565b610bd7818484610b9a565b505050565b5b81811015610bfb57610bf0600082610bc4565b600181019050610bdd565b5050565b601f821115610c4057610c1181610ae0565b610c1a84610af5565b81016020851015610c29578190505b610c3d610c3585610af5565b830182610bdc565b50505b505050565b600082821c905092915050565b6000610c6360001984600802610c45565b1980831691505092915050565b6000610c7c8383610c52565b9150826002028217905092915050565b610c95826105b2565b67ffffffffffffffff811115610cae57610cad6107a2565b5b610cb88254610aaf565b610cc3828285610bff565b600060209050601f831160018114610cf65760008415610ce4578287015190505b610cee8582610c70565b865550610d56565b601f198416610d0486610ae0565b60005b82811015610d2c57848901518255600182019150602085019450602081019050610d07565b86831015610d495784890151610d45601f891682610c52565b8355505b6001600288020188555050505b50505050505056fea26469706673582212202062325806a90740a6b19e8fbbc093b443802fd29fb573232338d858ec744fde64736f6c634300081c0033",
  "linkReferences": {},
  "deployedLinkReferences": {}
}